:030000000208866D
:0C088600787FE4F6D8FD758107020800B9
:1008570012086975A0FF12086975A08012086975EA
:02086700A0FFF0
:10086900E4FFFEE4FDFC0DBD00010CED64644C7079
:0C087900F50FBF00010EBE01EABFF4E75E
:010885002250
:1008000075A04012086375A0F912086375A0241240
:10081000086375A03012086375A01912086375A0EB
:100820001212086375A00212086375A0F812085727
:1008300075A01012086375A00812085775A046121B
:10084000086375A04012086375A00612086375A0BE
:070850000E1208630208000C
:00000001FF
